:100000000C945D000C9485000C9485000C94850084
:100010000C9485000C9485000C9485000C9485004C
:100020000C9485000C9485000C9485000C9485003C
:100030000C9485000C9485000C9485000C9485002C
:100040000C9473020C9485000C94E3020C94BD0292
:100050000C9485000C9485000C9485000C9485000C
:100060000C9485000C94850000000008000201003B
:100070000003040700000000000000000000000072
:10008000250028002B0000000000240027002A0083
:10009000040404040404040402020202020203032E
:1000A0000303030301020408102040800102040836
:1000B0001020010204081020F30311241FBECFEF0B
:1000C000D8E0DEBFCDBF11E0A0E0B1E0E6E8F8E0A7
:1000D00002C005900D92A03FB107D9F722E0A0EF32
:1000E000B1E001C01D92AC39B207E1F710E0CDE5F7
:1000F000D0E004C02197FE010E942704CC35D1072F
:10010000C9F70E9415030C9441040C94000090E080
:10011000FC01EC55FF4F2491FC01E057FF4F849107
:10012000882399F090E0880F991FFC01EA57FF4F50
:10013000A591B491FC01E458FF4F859194918FB73C
:10014000F894EC91E22BEC938FBF089590E0FC01C2
:10015000E859FF4F2491FC01EC55FF4F3491FC010D
:10016000E057FF4FE491EE2309F43CC0222339F11C
:10017000233091F038F42130A9F0223001F584B514
:100180008F7D12C0273091F02830A1F02430B9F4CF
:10019000809180008F7D03C0809180008F77809355
:1001A00080000DC084B58F7784BD09C08091B000F8
:1001B0008F7703C08091B0008F7D8093B000F0E016
:1001C000EE0FFF1FE458FF4FA591B4919FB7F8942D
:1001D000611104C08C913095382302C0EC913E2B04
:1001E0003C939FBF08958230910538F0880F991F86
:1001F000880F991F05970197F1F70895CF92DF9225
:10020000EF92FF920F931F93CF93DF936C017A01CC
:100210008B01C0E0D0E0CE15DF0581F0D8016D91F3
:100220008D01D601ED91FC910190F081E02DC60188
:100230000995892B11F02196EECF7E01C701DF9140
:10024000CF911F910F91FF90EF90DF90CF90089585
:10025000089580E090E00895FC01538D448D252F92
:1002600030E0842F90E0821B930B541710F0CF9650
:10027000089501970895FC01918D828D981761F082
:10028000828DDF01A80FB11D5D968C91928D9F5FCD
:100290009F73928F90E008958FEF9FEF0895FC0178
:1002A000918D828D981731F0828DE80FF11D858D2B
:1002B00090E008958FEF9FEF0895FC01918D228DBE
:1002C000892F90E0805C9F4F821B91098F73992743
:1002D000089580EF91E00E945D0121E0892B09F4EF
:1002E00020E0822F0895FC01848DDF01A80FB11D4D
:1002F000A35ABF4F2C91848D90E001968F7399275C
:10030000848FA689B7892C93A089B1898C91837039
:1003100080648C93938D848D981306C00288F38932
:10032000E02D80818F7D80830895EF92FF920F935F
:100330001F93CF93DF93EC0181E0888F9B8D8C8D91
:10034000981305C0E889F989808185FD26C0F62EBD
:100350000B8D10E00F5F1F4F0F731127E02E8C8D58
:10036000E8120CC00FB607FCFACFE889F989808142
:1003700085FFF5CFCE010E947301F1CF8B8DFE0179
:10038000E80FF11DE35AFF4FF0829FB7F8940B8FEF
:10039000EA89FB89808180620AC09FB7F894EE8960
:1003A000FF896083E889F989808183708064808314
:1003B0009FBF81E090E0DF91CF911F910F91FF905F
:1003C000EF900895CF93DF93EC01888D8823C9F0D7
:1003D000EA89FB89808185FD05C0A889B9898C914E
:1003E00086FD0FC00FB607FCF5CF808185FFF2CFE9
:1003F000A889B9898C9185FFEDCFCE010E94730148
:10040000E7CFDF91CF91089580E090E0892B29F02C
:100410000E94690181110C94000008958F929F92AF
:10042000AF92BF92CF92DF92EF92FF92CF93DF9382
:10043000C0909102D09092021C141D045CF0C2E3A3
:10044000D0E080918D0290918E020E94F30021975E
:10045000C1F73CC061E086E00E94A600E601D595A8
:10046000C795812C912C54010D2C000CEE08FF082F
:1004700080918D0290918E02A0918F02B091900296
:1004800088169906AA06BB069CF461E089E00E94E2
:10049000A600CE010E94F30060E089E00E94A60061
:1004A000CE010E94F3008C0C9D1CAE1CBF1CE0CF43
:1004B00060E086E0DF91CF91FF90EF90DF90CF90EA
:1004C000BF90AF909F908F900C94A600DF91CF913A
:1004D000FF90EF90DF90CF90BF90AF909F908F9064
:1004E00008950E943C041F920F920FB60F921124A0
:1004F0002F933F938F939F93AF93BF9380919802D5
:1005000090919902A0919A02B0919B02309197022A
:1005100023E0230F2D3720F40196A11DB11D05C046
:1005200026E8230F0296A11DB11D20939702809308
:10053000980290939902A0939A02B0939B028091A3
:10054000930290919402A0919502B0919602019627
:10055000A11DB11D8093930290939402A0939502E4
:10056000B0939602BF91AF919F918F913F912F9140
:100570000F900FBE0F901F9018951F920F920FB6FD
:100580000F9211242F933F934F935F936F937F9319
:100590008F939F93AF93BF93EF93FF9380EF91E07F
:1005A0000E947301FF91EF91BF91AF919F918F9145
:1005B0007F916F915F914F913F912F910F900FBE5F
:1005C0000F901F9018951F920F920FB60F92112443
:1005D0002F938F939F93EF93FF93E0910002F091FD
:1005E00001028081E0910602F091070282FD12C0B3
:1005F0009081809109028F5F8F7320910A02821788
:1006000051F0E0910902F0E0E051FE4F958F8093A8
:10061000090201C08081FF91EF919F918F912F91ED
:100620000F900FBE0F901F901895789484B582603C
:1006300084BD84B5816084BD85B5826085BD85B586
:10064000816085BD80916E00816080936E00109204
:10065000810080918100826080938100809181007F
:100660008160809381008091800081608093800010
:100670008091B10084608093B1008091B00081606E
:100680008093B00080917A00846080937A0080919A
:100690007A00826080937A0080917A0081608093F2
:1006A0007A0080917A00806880937A001092C1006D
:1006B00089E00E94870086E00E948700E0910002A6
:1006C000F091010282E08083E091FC01F091FD0154
:1006D0001082E091FE01F091FF018FEC8083109277
:1006E0000802E0910402F091050286E08083E09127
:1006F0000202F0910302808180618083E091020216
:10070000F0910302808188608083E0910202F09181
:100710000302808180688083E0910202F0910302ED
:1007200080818F7D808393E1E92EF12C20E6C22E1B
:1007300021E0D22E88EAA82E81E0B82E00E611E052
:10074000C0E0D0E08091000190910101C817D90765
:1007500004F5F501819191915F019093920280934C
:100760009102F801A191B1918F0120E137E20E943D
:10077000200460938D0270938E0280938F02909379
:1007800090020E940E0288EE93E00E94F3002196F0
:10079000D9CFF0920101E0920001CAE3D1E004E177
:1007A00011E0899199919093920280939102F801BE
:1007B000A191B1918F0120E137E20E942004609362
:1007C0008D0270938E0280938F02909390020E940C
:1007D0000E0288EE93E00E94F300CC16DD0609F7C6
:1007E0000E940402A7CFE0EFF1E01382128288EEAC
:1007F00093E0A0E0B0E084839583A683B78386E08E
:1008000091E09183808385EC90E09587848784ECE8
:1008100090E09787868780EC90E0918B808B81ECCD
:1008200090E0938B828B82EC90E0958B848B86ECAE
:1008300090E0978B868B118E128E138E148E0895F6
:100840000E942D04B7FF0895821B930B0895EE0FAD
:10085000FF1F0590F491E02D0994A29FB001B39F72
:10086000C001A39F700D811D1124911DB29F700DB9
:10087000811D1124911D089581E090E0F8940C945D
:060880004104F894FFCFD3
:100886002400000000009501FE002C01E2015D013C
:100896003B014F0115001500150080008000150072
:1008A6001500150080004000150015001500800099
:1008B60040001500150015008000310B310B310B7F
:1008C600620899054806AA0678073104990548067C
:1008D600AA067807310499054806AA064806780745
:1008E6003200140032001400320014002800050003
:1008F600140005003C000A0028000500140005004D
:100906003C00500032001400320014003200140083
:1009160028000500140005003C000A002800050018
:10092600140005003C002800E0080000E008000074
:10093600E0080000310B000078070000E008000026
:10094600310B000078070000E0080000ED0500000C
:10095600ED050000ED050000990500007807000090
:10096600FC0400009905000078070000E00800007C
:107E0000112484B714BE81FFF0D085E080938100F7
:107E100082E08093C00088E18093C10086E0809377
:107E2000C20080E18093C4008EE0C9D0259A86E02C
:107E300020E33CEF91E0309385002093840096BBD3
:107E4000B09BFECF1D9AA8958150A9F7CC24DD24C4
:107E500088248394B5E0AB2EA1E19A2EF3E0BF2EE7
:107E6000A2D0813461F49FD0082FAFD0023811F036
:107E7000013811F484E001C083E08DD089C08234E0
:107E800011F484E103C0853419F485E0A6D080C0E4
:107E9000853579F488D0E82EFF2485D0082F10E0AE
:107EA000102F00270E291F29000F111F8ED06801E7
:107EB0006FC0863521F484E090D080E0DECF843638
:107EC00009F040C070D06FD0082F6DD080E0C81688
:107ED00080E7D80618F4F601B7BEE895C0E0D1E017
:107EE00062D089930C17E1F7F0E0CF16F0E7DF06D8
:107EF00018F0F601B7BEE89568D007B600FCFDCFD4
:107F0000A601A0E0B1E02C9130E011968C91119780
:107F100090E0982F8827822B932B1296FA010C0160
:107F200087BEE89511244E5F5F4FF1E0A038BF0790
:107F300051F7F601A7BEE89507B600FCFDCF97BE46
:107F4000E89526C08437B1F42ED02DD0F82E2BD052
:107F50003CD0F601EF2C8F010F5F1F4F84911BD097
:107F6000EA94F801C1F70894C11CD11CFA94CF0C13
:107F7000D11C0EC0853739F428D08EE10CD085E9AC
:107F80000AD08FE07ACF813511F488E018D01DD067
:107F900080E101D065CF982F8091C00085FFFCCF94
:107FA0009093C60008958091C00087FFFCCF809118
:107FB000C00084FD01C0A8958091C6000895E0E648
:107FC000F0E098E1908380830895EDDF803219F02E
:107FD00088E0F5DFFFCF84E1DECF1F93182FE3DFCA
:107FE0001150E9F7F2DF1F91089580E0E8DFEE27F6
:047FF000FF270994CA
:027FFE00040479
:0400000300007E007B
:00000001FF
