:100000000C9435000C945D000C945D000C945D0024
:100010000C945D000C945D000C945D000C945D00EC
:100020000C945D000C945D000C945D000C945D00DC
:100030000C945D000C945D000C945D000C945D00CC
:100040000C94B6010C945D000C9426020C940002F2
:100050000C945D000C945D000C945D000C945D00AC
:100060000C945D000C945D00460311241FBECFEF7D
:10007000D8E0DEBFCDBF11E0A0E0B1E0E0E0F7E006
:1000800002C005900D92AC35B107D9F722E0ACE57E
:10009000B1E001C01D92A430B207E1F710E0C5E362
:1000A000D0E004C02197FE010E947303C433D1073E
:1000B000C9F70E9458020C947E030C9400003FB7CD
:1000C000F8948091630190916401A0916501B091D1
:1000D000660126B5A89B05C02F3F19F00196A11D0A
:1000E000B11D3FBFBA2FA92F982F8827820F911DCE
:1000F000A11DB11DBC01CD0142E0660F771F881F15
:10010000991F4A95D1F70895CF92DF92EF92FF920F
:100110000F931F93CF93DF936C017A018B01C0E0A3
:10012000D0E0CE15DF0581F0D8016D918D01D601AB
:10013000ED91FC910190F081E02DC6010995892B8C
:1001400011F02196EECF7E01C701DF91CF911F9173
:100150000F91FF90EF90DF90CF900895089580E089
:1001600090E00895FC01538D448D252F30E0842FBD
:1001700090E0821B930B541710F0CF9608950197CF
:100180000895FC01918D828D981761F0828DDF01B9
:10019000A80FB11D5D968C91928D9F5F9F73928F7A
:1001A00090E008958FEF9FEF0895FC01918D828D6F
:1001B000981731F0828DE80FF11D858D90E008953C
:1001C0008FEF9FEF0895FC01918D228D892F90E094
:1001D000805C9F4F821B91098F739927089587E652
:1001E00091E00E94E30021E0892B09F420E0822FB6
:1001F0000895FC01848DDF01A80FB11DA35ABF4FE4
:100200002C91848D90E001968F739927848FA68915
:10021000B7892C93A089B1898C91837080648C9369
:10022000938D848D981306C00288F389E02D808118
:100230008F7D80830895EF92FF920F931F93CF934A
:10024000DF93EC0181E0888F9B8D8C8D981305C026
:10025000E889F989808185FD26C0F62E0B8D10E096
:100260000F5F1F4F0F731127E02E8C8DE8120CC00B
:100270000FB607FCFACFE889F989808185FFF5CFB1
:10028000CE010E94F900F1CF8B8DFE01E80FF11D28
:10029000E35AFF4FF0829FB7F8940B8FEA89FB89EE
:1002A000808180620AC09FB7F894EE89FF896083DD
:1002B000E889F98980818370806480839FBF81E0B1
:1002C00090E0DF91CF911F910F91FF90EF900895F3
:1002D000CF93DF93EC01888D8823C9F0EA89FB89ED
:1002E000808185FD05C0A889B9898C9186FD0FC0E4
:1002F0000FB607FCF5CF808185FFF2CFA889B989B9
:100300008C9185FFEDCFCE010E94F900E7CFDF9100
:10031000CF91089580E090E0892B29F00E94EF00B2
:1003200081110C9400000895009769F0FC01019080
:100330000020E9F73197AF01481B590BBC0187E654
:1003400091E00C94840080E090E00895CF93DF93D7
:100350000E949401EC0182E191E00E9494018C0FD3
:100360009D1FDF91CF9108950E9479031F920F92F4
:100370000FB60F9211242F933F938F939F93AF93B8
:10038000BF9380915F0190916001A0916101B09154
:10039000620130915E0123E0230F2D3720F4019696
:1003A000A11DB11D05C026E8230F0296A11DB11D98
:1003B00020935E0180935F0190936001A09361019F
:1003C000B09362018091630190916401A0916501F5
:1003D000B09166010196A11DB11D809363019093B8
:1003E0006401A0936501B0936601BF91AF919F91A5
:1003F0008F913F912F910F900FBE0F901F901895E6
:100400001F920F920FB60F9211242F933F934F9389
:100410005F936F937F938F939F93AF93BF93EF936C
:10042000FF9387E691E00E94F900FF91EF91BF9161
:10043000AF919F918F917F916F915F914F913F917C
:100440002F910F900FBE0F901F9018951F920F9233
:100450000FB60F9211242F938F939F93EF93FF93D7
:10046000E0917701F09178018081E0917D01F09138
:100470007E0182FD12C09081809180018F5F8F7319
:1004800020918101821751F0E0918001F0E0E9595B
:10049000FE4F958F8093800101C08081FF91EF9185
:1004A0009F918F912F910F900FBE0F901F901895D5
:1004B000CF93DF93CDB7DEB7A1970FB6F894DEBF29
:1004C0000FBECDBF789484B5826084BD84B5816051
:1004D00084BD85B5826085BD85B5816085BD80910F
:1004E0006E00816080936E00109281008091810087
:1004F000826080938100809181008160809381007F
:10050000809180008160809380008091B100846040
:100510008093B1008091B00081608093B0008091A1
:100520007A00846080937A0080917A008260809360
:100530007A0080917A00816080937A0080917A00BD
:10054000806880937A001092C100E0917701F09169
:10055000780182E08083E0917301F0917401108250
:10056000E0917501F09176018FEC808310927F010C
:10057000E0917B01F0917C0186E08083E09179013C
:10058000F0917A01808180618083E0917901F0911E
:100590007A01808188608083E0917901F0917A010D
:1005A000808180688083E0917901F0917A01808177
:1005B0008F7D808310E400E310937C0080917A00AB
:1005C000806480937A0080917A0086FDFCCF8091D0
:1005D00078002091790090E0922B90935D018093B8
:1005E0005C0185E191E00E94940119A208A3CE016B
:1005F00080960E94940185E391E00E94940180918D
:100600005C0190915D01811523E092071CF08BE362
:1006100091E010C0811522E092071CF080E491E087
:1006200009C08F3F910521F01CF08BE491E002C0DE
:1006300086E591E00E94A6010E945F006B017C01AB
:1006400088EE882E83E0982EA12CB12C0E945F00AA
:10065000DC01CB018C199D09AE09BF09883E93408E
:10066000A105B10598F381E0881A9108A108B108A5
:1006700028EEC20E23E0D21EE11CF11C811491046D
:10068000A104B10419F70E948A0196CFE7E6F1E0D0
:100690001382128288EE93E0A0E0B0E08483958319
:1006A000A683B78384E091E09183808385EC90E01A
:1006B0009587848784EC90E09787868780EC90E02C
:1006C000918B808B81EC90E0938B828B82EC90E01D
:1006D000958B848B86EC90E0978B868B118E128E97
:1006E000138E148E0895EE0FFF1F0590F491E02DE8
:1006F000099481E090E0F8940C947E03F894FFCF85
:10070000000000001B018400B2006801E300C1008A
:10071000D5000D0A004C61206C6563747572612010
:10072000616E616C6F6769636120656E20656C2026
:1007300070696E20002065733A2000416C7461007E
:100740004D6564696F20616C7461004D6564696F0B
:0C0750002062616A610042616A61000081
:00000001FF
